{
  "contractName": "ManageUser",
  "abi": [
    {
      "constant": true,
      "inputs": [],
      "name": "userCount",
      "outputs": [
        {
          "name": "",
          "type": "uint256"
        }
      ],
      "payable": false,
      "stateMutability": "view",
      "type": "function",
      "signature": "0x07973ccf"
    },
    {
      "constant": true,
      "inputs": [
        {
          "name": "",
          "type": "address"
        }
      ],
      "name": "userMap",
      "outputs": [
        {
          "name": "",
          "type": "bool"
        }
      ],
      "payable": false,
      "stateMutability": "view",
      "type": "function",
      "signature": "0x2bcc23f8"
    },
    {
      "constant": true,
      "inputs": [],
      "name": "manager",
      "outputs": [
        {
          "name": "",
          "type": "address"
        }
      ],
      "payable": false,
      "stateMutability": "view",
      "type": "function",
      "signature": "0x481c6a75"
    },
    {
      "inputs": [],
      "payable": false,
      "stateMutability": "nonpayable",
      "type": "constructor",
      "signature": "constructor"
    },
    {
      "constant": false,
      "inputs": [
        {
          "name": "user",
          "type": "address"
        }
      ],
      "name": "AddUser",
      "outputs": [],
      "payable": false,
      "stateMutability": "nonpayable",
      "type": "function",
      "signature": "0x93e8ef53"
    },
    {
      "constant": true,
      "inputs": [
        {
          "name": "user",
          "type": "address"
        }
      ],
      "name": "CheckUser",
      "outputs": [
        {
          "name": "",
          "type": "bool"
        }
      ],
      "payable": false,
      "stateMutability": "view",
      "type": "function",
      "signature": "0x5b658e6b"
    },
    {
      "constant": true,
      "inputs": [],
      "name": "GetUserCount",
      "outputs": [
        {
          "name": "",
          "type": "uint256"
        }
      ],
      "payable": false,
      "stateMutability": "view",
      "type": "function",
      "signature": "0xfca66522"
    }
  ],
  "bytecode": "0x608060405234801561001057600080fd5b5033600260006101000a81548173ffffffffffffffffffffffffffffffffffffffff021916908373ffffffffffffffffffffffffffffffffffffffff1602179055506103d8806100616000396000f300608060405260043610610078576000357c0100000000000000000000000000000000000000000000000000000000900463ffffffff16806307973ccf1461007d5780632bcc23f8146100a8578063481c6a75146101035780635b658e6b1461015a57806393e8ef53146101b5578063fca66522146101f8575b600080fd5b34801561008957600080fd5b50610092610223565b6040518082815260200191505060405180910390f35b3480156100b457600080fd5b506100e9600480360381019080803573ffffffffffffffffffffffffffffffffffffffff169060200190929190505050610229565b604051808215151515815260200191505060405180910390f35b34801561010f57600080fd5b50610118610249565b604051808273ffffffffffffffffffffffffffffffffffffffff1673ffffffffffffffffffffffffffffffffffffffff16815260200191505060405180910390f35b34801561016657600080fd5b5061019b600480360381019080803573ffffffffffffffffffffffffffffffffffffffff16906020019092919050505061026f565b604051808215151515815260200191505060405180910390f35b3480156101c157600080fd5b506101f6600480360381019080803573ffffffffffffffffffffffffffffffffffffffff1690602001909291905050506102d8565b005b34801561020457600080fd5b5061020d6103a2565b6040518082815260200191505060405180910390f35b60015481565b60006020528060005260406000206000915054906101000a900460ff1681565b600260009054906101000a900473ffffffffffffffffffffffffffffffffffffffff1681565b6000600115156000808473ffffffffffffffffffffffffffffffffffffffff1673ffffffffffffffffffffffffffffffffffffffff16815260200190815260200160002060009054906101000a900460ff1615151415156102cf57600080fd5b60019050919050565b600015156000808373ffffffffffffffffffffffffffffffffffffffff1673ffffffffffffffffffffffffffffffffffffffff16815260200190815260200160002060009054906101000a900460ff16151514151561033657600080fd5b60016000808373ffffffffffffffffffffffffffffffffffffffff1673ffffffffffffffffffffffffffffffffffffffff16815260200190815260200160002060006101000a81548160ff02191690831515021790555060016000815480929190600101919050555050565b60006001549050905600a165627a7a72305820311b2cf66e0c638174ae3da0044ba7708efc2cc2dca7f2c1d0b83ed7459928a80029",
  "source": "pragma solidity >=0.4.21 <0.6.0;\r\n\r\ncontract ManageUser{\r\n    mapping(address => bool) public userMap;\r\n    uint public userCount;\r\n    address public manager;\r\n    \r\n    constructor() public {\r\n        manager = msg.sender;\r\n    }\r\n    \r\n    function AddUser(address user) public{\r\n       require(userMap[user] == false);\r\n       userMap[user] = true;\r\n       userCount++;\r\n    }\r\n    \r\n    function CheckUser(address user) public view returns(bool){\r\n        require(userMap[user] == true);\r\n        return true;\r\n        require(userMap[user] == false);\r\n        return false;\r\n    }\r\n\r\n    function GetUserCount() public view returns (uint){\r\n        return userCount;\r\n    }\r\n}",
  "sourcePath": "C:/Users/Dell/Desktop/HouseCare_Contract/contracts/ManageUser.sol",
  "compiler": {
    "name": "solc",
    "version": "0.4.23+commit.124ca40d.Emscripten.clang"
  },
  "schemaVersion": "3.0.1",
  "updatedAt": "2019-01-11T04:18:46.746Z",
  "devdoc": {
    "methods": {}
  },
  "userdoc": {
    "methods": {}
  }
}